{
  "address": "0x0a114E3062FaF6f4AAa61A185e7370828e50dC11",
  "abi": [
    {
      "inputs": [
        {
          "internalType": "address",
          "name": "priceFeedUSDtoETHAddress",
          "type": "address"
        },
        {
          "internalType": "address",
          "name": "priceFeedEURtoUSDAddress",
          "type": "address"
        }
      ],
      "stateMutability": "nonpayable",
      "type": "constructor"
    },
    {
      "inputs": [],
      "name": "JobOfferFactory_employer_does_not_have_enough_balance",
      "type": "error"
    },
    {
      "inputs": [],
      "name": "JobOfferFactory_not_all_offers_closed",
      "type": "error"
    },
    {
      "inputs": [
        {
          "internalType": "uint256",
          "name": "requiredEthAmount",
          "type": "uint256"
        },
        {
          "internalType": "uint256",
          "name": "balance",
          "type": "uint256"
        }
      ],
      "name": "JobOfferFactory_not_enough_eth_funded",
      "type": "error"
    },
    {
      "inputs": [
        {
          "internalType": "address",
          "name": "offerAddress",
          "type": "address"
        }
      ],
      "name": "JobOfferFactory_not_valid_offer",
      "type": "error"
    },
    {
      "inputs": [],
      "name": "JobOfferFactory_transaction_not_successful",
      "type": "error"
    },
    {
      "inputs": [],
      "name": "JobOfferFactory_zero_balance",
      "type": "error"
    },
    {
      "anonymous": false,
      "inputs": [
        {
          "indexed": true,
          "internalType": "address",
          "name": "offerAddress",
          "type": "address"
        },
        {
          "indexed": false,
          "internalType": "enum OfferType",
          "name": "offerType",
          "type": "uint8"
        },
        {
          "indexed": false,
          "internalType": "address",
          "name": "employer",
          "type": "address"
        },
        {
          "indexed": false,
          "internalType": "address",
          "name": "employee",
          "type": "address"
        }
      ],
      "name": "OfferCreated",
      "type": "event"
    },
    {
      "stateMutability": "payable",
      "type": "fallback"
    },
    {
      "inputs": [],
      "name": "KEEPER_COMPATIBLE_FEE",
      "outputs": [
        {
          "internalType": "uint256",
          "name": "",
          "type": "uint256"
        }
      ],
      "stateMutability": "view",
      "type": "function"
    },
    {
      "inputs": [
        {
          "internalType": "bytes",
          "name": "",
          "type": "bytes"
        }
      ],
      "name": "checkUpkeep",
      "outputs": [
        {
          "internalType": "bool",
          "name": "upkeepNeeded",
          "type": "bool"
        },
        {
          "internalType": "bytes",
          "name": "",
          "type": "bytes"
        }
      ],
      "stateMutability": "pure",
      "type": "function"
    },
    {
      "inputs": [
        {
          "internalType": "uint256",
          "name": "amount",
          "type": "uint256"
        },
        {
          "internalType": "enum Currency",
          "name": "currency",
          "type": "uint8"
        },
        {
          "internalType": "enum OfferType",
          "name": "offerType",
          "type": "uint8"
        },
        {
          "internalType": "bool",
          "name": "keeperCompatible",
          "type": "bool"
        }
      ],
      "name": "countRequiredFund",
      "outputs": [
        {
          "internalType": "uint256",
          "name": "",
          "type": "uint256"
        }
      ],
      "stateMutability": "view",
      "type": "function"
    },
    {
      "inputs": [
        {
          "internalType": "enum OfferType",
          "name": "contractType",
          "type": "uint8"
        },
        {
          "internalType": "uint256",
          "name": "paymentAmount",
          "type": "uint256"
        },
        {
          "internalType": "address",
          "name": "employeeAddress",
          "type": "address"
        },
        {
          "internalType": "uint256",
          "name": "paymentRate",
          "type": "uint256"
        },
        {
          "internalType": "enum Currency",
          "name": "currency",
          "type": "uint8"
        },
        {
          "internalType": "bool",
          "name": "keeperCompatible",
          "type": "bool"
        }
      ],
      "name": "createJobOffer",
      "outputs": [
        {
          "internalType": "address",
          "name": "",
          "type": "address"
        }
      ],
      "stateMutability": "nonpayable",
      "type": "function"
    },
    {
      "inputs": [],
      "name": "fund",
      "outputs": [],
      "stateMutability": "payable",
      "type": "function"
    },
    {
      "inputs": [
        {
          "internalType": "uint256",
          "name": "amount",
          "type": "uint256"
        },
        {
          "internalType": "address",
          "name": "employerAddress",
          "type": "address"
        },
        {
          "internalType": "bool",
          "name": "keeperCompatible",
          "type": "bool"
        }
      ],
      "name": "fundJobOffer",
      "outputs": [],
      "stateMutability": "nonpayable",
      "type": "function"
    },
    {
      "inputs": [],
      "name": "getEmployeeData",
      "outputs": [
        {
          "components": [
            {
              "components": [
                {
                  "internalType": "address",
                  "name": "offerAddress",
                  "type": "address"
                },
                {
                  "internalType": "enum OfferType",
                  "name": "offerType",
                  "type": "uint8"
                }
              ],
              "internalType": "struct JobOfferFactory.Offer[]",
              "name": "offers",
              "type": "tuple[]"
            }
          ],
          "internalType": "struct JobOfferFactory.Employee",
          "name": "",
          "type": "tuple"
        }
      ],
      "stateMutability": "view",
      "type": "function"
    },
    {
      "inputs": [],
      "name": "getEmployerData",
      "outputs": [
        {
          "components": [
            {
              "internalType": "uint256",
              "name": "balance",
              "type": "uint256"
            },
            {
              "components": [
                {
                  "internalType": "address",
                  "name": "offerAddress",
                  "type": "address"
                },
                {
                  "internalType": "enum OfferType",
                  "name": "offerType",
                  "type": "uint8"
                }
              ],
              "internalType": "struct JobOfferFactory.Offer[]",
              "name": "offers",
              "type": "tuple[]"
            }
          ],
          "internalType": "struct JobOfferFactory.Employer",
          "name": "",
          "type": "tuple"
        }
      ],
      "stateMutability": "view",
      "type": "function"
    },
    {
      "inputs": [],
      "name": "getKeeperCompatibleFee",
      "outputs": [
        {
          "internalType": "uint256",
          "name": "",
          "type": "uint256"
        }
      ],
      "stateMutability": "pure",
      "type": "function"
    },
    {
      "inputs": [
        {
          "internalType": "uint256",
          "name": "amount",
          "type": "uint256"
        },
        {
          "internalType": "enum Currency",
          "name": "currency",
          "type": "uint8"
        }
      ],
      "name": "parseEthToCurrency",
      "outputs": [
        {
          "internalType": "uint256",
          "name": "",
          "type": "uint256"
        }
      ],
      "stateMutability": "view",
      "type": "function"
    },
    {
      "inputs": [
        {
          "internalType": "bytes",
          "name": "",
          "type": "bytes"
        }
      ],
      "name": "performUpkeep",
      "outputs": [],
      "stateMutability": "nonpayable",
      "type": "function"
    },
    {
      "inputs": [],
      "name": "withdraw",
      "outputs": [],
      "stateMutability": "nonpayable",
      "type": "function"
    },
    {
      "stateMutability": "payable",
      "type": "receive"
    }
  ],
  "transactionHash": "0xcadde3f68929dc227de494c3cc75d5aca9a0d60096a3babed7eded04b4a12a25",
  "args": [
    "0xD4a33860578De61DBAbDc8BFdb98FD742fA7028e",
    "0x44390589104C9164407A0E0562a9DBe6C24A0E05"
  ],
  "numDeployments": 2,
  "solcInputHash": "c90527189000ff4d443a023f14200b94",
  "bytecode": "0x60a06040523480156200001157600080fd5b5060405162005d6338038062005d6383398181016040528101906200003791906200015e565b816000806101000a81548173ffffffffffffffffffffffffffffffffffffffff021916908373ffffffffffffffffffffffffffffffffffffffff16021790555080600160006101000a81548173ffffffffffffffffffffffffffffffffffffffff021916908373ffffffffffffffffffffffffffffffffffffffff1602179055503373ffffffffffffffffffffffffffffffffffffffff1660808173ffffffffffffffffffffffffffffffffffffffff16815250505050620001a5565b600080fd5b600073ffffffffffffffffffffffffffffffffffffffff82169050919050565b60006200012682620000f9565b9050919050565b620001388162000119565b81146200014457600080fd5b50565b60008151905062000158816200012d565b92915050565b60008060408385031215620001785762000177620000f4565b5b6000620001888582860162000147565b92505060206200019b8582860162000147565b9150509250929050565b608051615ba2620001c160003960006117350152615ba26000f3fe608060405260043610620000bb5760003560e01c80636e04ff0d116200006d5780636e04ff0d14620001f5578063728c46c1146200023a5780638c44f9f7146200026857806397d6a5e014620002ac5780639847ce0c14620002dc578063b60d4288146200032057620000cd565b8063148726ff14620000d957806317a857be14620001095780633ccfd60b14620001395780634585e33b14620001535780634c79582714620001815780636518c32d14620001c557620000cd565b36620000cd57620000cb6200032c565b005b620000d76200032c565b005b348015620000e657600080fd5b50620000f162000389565b60405162000100919062001aa1565b60405180910390f35b3480156200011657600080fd5b506200012162000398565b60405162000130919062001cc5565b60405180910390f35b3480156200014657600080fd5b5062000151620004ef565b005b3480156200016057600080fd5b506200017f600480360381019062000179919062001d6b565b620006e3565b005b3480156200018e57600080fd5b50620001ad6004803603810190620001a7919062001e7e565b62000850565b604051620001bc919062001aa1565b60405180910390f35b348015620001d257600080fd5b50620001dd62000925565b604051620001ec919062001aa1565b60405180910390f35b3480156200020257600080fd5b506200022160048036038101906200021b91906200204d565b62000930565b6040516200023192919062002138565b60405180910390f35b3480156200024757600080fd5b506200026660048036038101906200026091906200219d565b6200093d565b005b3480156200027557600080fd5b506200029460048036038101906200028e9190620021f9565b62000b4b565b604051620002a3919062001aa1565b60405180910390f35b348015620002b957600080fd5b50620002c462000bb0565b604051620002d391906200226c565b60405180910390f35b348015620002e957600080fd5b5062000308600480360381019062000302919062002290565b62000cfd565b6040516200031791906200233d565b60405180910390f35b6200032a6200032c565b005b34600260003373ffffffffffffffffffffffffffffffffffffffff1673ffffffffffffffffffffffffffffffffffffffff168152602001908152602001600020600001600082825462000380919062002389565b92505081905550565b60006611c37937e08000905090565b620003a262001a4b565b600260003373ffffffffffffffffffffffffffffffffffffffff1673ffffffffffffffffffffffffffffffffffffffff1681526020019081526020016000206040518060400160405290816000820154815260200160018201805480602002602001604051908101604052809291908181526020016000905b82821015620004e2578382906000526020600020016040518060400160405290816000820160009054906101000a900473ffffffffffffffffffffffffffffffffffffffff1673ffffffffffffffffffffffffffffffffffffffff1673ffffffffffffffffffffffffffffffffffffffff1681526020016000820160149054906101000a900460ff166001811115620004b957620004b862001b40565b5b6001811115620004ce57620004cd62001b40565b5b81525050815260200190600101906200041b565b5050505081525050905090565b6000600260003373ffffffffffffffffffffffffffffffffffffffff1673ffffffffffffffffffffffffffffffffffffffff16815260200190815260200160002060000154036200056c576040517f2b976d1d00000000000000000000000000000000000000000000000000000000815260040160405180910390fd5b62000577336200137d565b620005ae576040517fe3acfc1f00000000000000000000000000000000000000000000000000000000815260040160405180910390fd5b60003373ffffffffffffffffffffffffffffffffffffffff16600260003373ffffffffffffffffffffffffffffffffffffffff1673ffffffffffffffffffffffffffffffffffffffff168152602001908152602001600020600001546040516200061890620023f9565b60006040518083038185875af1925050503d806000811462000657576040519150601f19603f3d011682016040523d82523d6000602084013e6200065c565b606091505b505090506000600260003373ffffffffffffffffffffffffffffffffffffffff1673ffffffffffffffffffffffffffffffffffffffff1681526020019081526020016000206000018190555080620006e0576040517f539806b100000000000000000000000000000000000000000000000000000000815260040160405180910390fd5b50565b60005b6004805490508160ff1610156200084b57600060048260ff168154811062000713576200071262002410565b5b9060005260206000200160009054906101000a900473ffffffffffffffffffffffffffffffffffffffff1690508073ffffffffffffffffffffffffffffffffffffffff16631e62f7b56040518163ffffffff1660e01b8152600401602060405180830381865afa1580156200078c573d6000803e3d6000fd5b505050506040513d601f19601f82011682018060405250810190620007b2919062002456565b620007be575062000835565b8073ffffffffffffffffffffffffffffffffffffffff16636e4d243a6040518163ffffffff1660e01b81526004016020604051808303816000875af11580156200080c573d6000803e3d6000fd5b505050506040513d601f19601f820116820180604052508101906200083291906200249f565b50505b80806200084290620024de565b915050620006e6565b505050565b60008060039050600060018111156200086e576200086d62001b40565b5b84600181111562000884576200088362001b40565b5b03620008905761024090505b60008315620008a4576611c37937e0800090505b80826200090160008054906101000a900473ffffffffffffffffffffffffffffffffffffffff16600160009054906101000a900473ffffffffffffffffffffffffffffffffffffffff168a8c6200152c909392919063ffffffff16565b6200090d91906200250c565b62000919919062002389565b92505050949350505050565b6611c37937e0800081565b6000606060019150915091565b620009483362001674565b6200098c57336040517f68636edb0000000000000000000000000000000000000000000000000000000081526004016200098391906200233d565b60405180910390fd5b60008115620009aa576611c37937e080009050620009a962001731565b5b8084620009b8919062002389565b600260008573ffffffffffffffffffffffffffffffffffffffff1673ffffffffffffffffffffffffffffffffffffffff16815260200190815260200160002060000154101562000a34576040517fbda2758100000000000000000000000000000000000000000000000000000000815260040160405180910390fd5b808462000a42919062002389565b600260008573ffffffffffffffffffffffffffffffffffffffff1673ffffffffffffffffffffffffffffffffffffffff168152602001908152602001600020600001600082825462000a95919062002557565b9250508190555060003373ffffffffffffffffffffffffffffffffffffffff168560405162000ac490620023f9565b60006040518083038185875af1925050503d806000811462000b03576040519150601f19603f3d011682016040523d82523d6000602084013e62000b08565b606091505b505090508062000b44576040517f539806b100000000000000000000000000000000000000000000000000000000815260040160405180910390fd5b5050505050565b600062000ba860008054906101000a900473ffffffffffffffffffffffffffffffffffffffff16600160009054906101000a900473ffffffffffffffffffffffffffffffffffffffff16848662001803909392919063ffffffff16565b905092915050565b62000bba62001a65565b600360003373ffffffffffffffffffffffffffffffffffffffff1673ffffffffffffffffffffffffffffffffffffffff16815260200190815260200160002060405180602001604052908160008201805480602002602001604051908101604052809291908181526020016000905b8282101562000cf0578382906000526020600020016040518060400160405290816000820160009054906101000a900473ffffffffffffffffffffffffffffffffffffffff1673ffffffffffffffffffffffffffffffffffffffff1673ffffffffffffffffffffffffffffffffffffffff1681526020016000820160149054906101000a900460ff16600181111562000cc75762000cc662001b40565b5b600181111562000cdc5762000cdb62001b40565b5b815250508152602001906001019062000c29565b5050505081525050905090565b600080600390506000600181111562000d1b5762000d1a62001b40565b5b88600181111562000d315762000d3062001b40565b5b0362000d3d5761024090505b6000831562000d51576611c37937e0800090505b6000818362000db060008054906101000a900473ffffffffffffffffffffffffffffffffffffffff16600160009054906101000a900473ffffffffffffffffffffffffffffffffffffffff168a8e6200152c909392919063ffffffff16565b62000dbc91906200250c565b62000dc8919062002389565b9050600260003373ffffffffffffffffffffffffffffffffffffffff1673ffffffffffffffffffffffffffffffffffffffff1681526020019081526020016000206000015481111562000e985780600260003373ffffffffffffffffffffffffffffffffffffffff1673ffffffffffffffffffffffffffffffffffffffff168152602001908152602001600020600001546040517f15525c5700000000000000000000000000000000000000000000000000000000815260040162000e8f92919062002592565b60405180910390fd5b6000828262000ea8919062002557565b60405180604001604052808b73ffffffffffffffffffffffffffffffffffffffff1681526020013373ffffffffffffffffffffffffffffffffffffffff16815250604051806040016040528060008054906101000a900473ffffffffffffffffffffffffffffffffffffffff1673ffffffffffffffffffffffffffffffffffffffff168152602001600160009054906101000a900473ffffffffffffffffffffffffffffffffffffffff1673ffffffffffffffffffffffffffffffffffffffff168152506040518060c001604052808e81526020018c81526020018b600281111562000f995762000f9862001b40565b5b81526020018881526020018f600181111562000fba5762000fb962001b40565b5b81526020018a151581525060405162000fd39062001a78565b62000fe19392919062002779565b6040518091039082f090508015801562000fff573d6000803e3d6000fd5b50905081600260003373ffffffffffffffffffffffffffffffffffffffff1673ffffffffffffffffffffffffffffffffffffffff168152602001908152602001600020600001600082825462001056919062002557565b9250508190555085156200106f576200106e62001731565b5b600260003373ffffffffffffffffffffffffffffffffffffffff1673ffffffffffffffffffffffffffffffffffffffff16815260200190815260200160002060010160405180604001604052808373ffffffffffffffffffffffffffffffffffffffff1681526020018d6001811115620010ee57620010ed62001b40565b5b8152509080600181540180825580915050600190039060005260206000200160009091909190915060008201518160000160006101000a81548173ffffffffffffffffffffffffffffffffffffffff021916908373ffffffffffffffffffffffffffffffffffffffff16021790555060208201518160000160146101000a81548160ff021916908360018111156200118b576200118a62001b40565b5b02179055505050600360008a73ffffffffffffffffffffffffffffffffffffffff1673ffffffffffffffffffffffffffffffffffffffff16815260200190815260200160002060000160405180604001604052808373ffffffffffffffffffffffffffffffffffffffff1681526020018d600181111562001211576200121062001b40565b5b8152509080600181540180825580915050600190039060005260206000200160009091909190915060008201518160000160006101000a81548173ffffffffffffffffffffffffffffffffffffffff021916908373ffffffffffffffffffffffffffffffffffffffff16021790555060208201518160000160146101000a81548160ff02191690836001811115620012ae57620012ad62001b40565b5b021790555050506004819080600181540180825580915050600190039060005260206000200160009091909190916101000a81548173ffffffffffffffffffffffffffffffffffffffff021916908373ffffffffffffffffffffffffffffffffffffffff1602179055508073ffffffffffffffffffffffffffffffffffffffff167f566839bf728651ae87f9c41327177e13183230df99ce5d3f362d43c215aa11d28c338c6040516200136493929190620027c8565b60405180910390a2809450505050509695505050505050565b600080600090505b600260008473ffffffffffffffffffffffffffffffffffffffff1673ffffffffffffffffffffffffffffffffffffffff168152602001908152602001600020600101805490508160ff1610156200152157600280811115620013ec57620013eb62001b40565b5b600260008573ffffffffffffffffffffffffffffffffffffffff1673ffffffffffffffffffffffffffffffffffffffff1681526020019081526020016000206001018260ff168154811062001446576200144562002410565b5b9060005260206000200160000160009054906101000a900473ffffffffffffffffffffffffffffffffffffffff1673ffffffffffffffffffffffffffffffffffffffff16631865c57d6040518163ffffffff1660e01b8152600401602060405180830381865afa158015620014bf573d6000803e3d6000fd5b505050506040513d601f19601f82011682018060405250810190620014e591906200282d565b6002811115620014fa57620014f962001b40565b5b146200150b57600091505062001527565b80806200151890620024de565b91505062001385565b50600190505b919050565b600080600281111562001544576200154362001b40565b5b8260028111156200155a576200155962001b40565b5b0362001569578490506200166c565b6001600281111562001580576200157f62001b40565b5b82600281111562001596576200159562001b40565b5b03620015e757600080620015aa866200194b565b9150915060008288620015be91906200288e565b905081600a620015cf919062002a1a565b81620015dc91906200250c565b93505050506200166c565b600080620015f5866200194b565b91509150600062001606866200194b565b50905060008183600a6200161b919062002a1a565b856200162891906200250c565b6200163491906200288e565b90506000818a6200164691906200288e565b905083600a62001657919062002a1a565b816200166491906200250c565b955050505050505b949350505050565b600080600090505b6004805490508160ff16101562001726578273ffffffffffffffffffffffffffffffffffffffff1660048260ff1681548110620016be57620016bd62002410565b5b9060005260206000200160009054906101000a900473ffffffffffffffffffffffffffffffffffffffff1673ffffffffffffffffffffffffffffffffffffffff1603620017105760019150506200172c565b80806200171d90620024de565b9150506200167c565b50600090505b919050565b60007f000000000000000000000000000000000000000000000000000000000000000073ffffffffffffffffffffffffffffffffffffffff166611c37937e080006040516200178090620023f9565b60006040518083038185875af1925050503d8060008114620017bf576040519150601f19603f3d011682016040523d82523d6000602084013e620017c4565b606091505b505090508062001800576040517f539806b100000000000000000000000000000000000000000000000000000000815260040160405180910390fd5b50565b60008060028111156200181b576200181a62001b40565b5b82600281111562001831576200183062001b40565b5b03620018405784905062001943565b6001600281111562001857576200185662001b40565b5b8260028111156200186d576200186c62001b40565b5b03620018be5760008062001881866200194b565b91509150600081600a62001896919062002a1a565b8884620018a491906200250c565b620018b091906200288e565b905080935050505062001943565b600080620018cc866200194b565b915091506000620018dd866200194b565b50905060008183600a620018f2919062002a1a565b85620018ff91906200250c565b6200190b91906200288e565b905060008184600a6200191f919062002a1a565b8b6200192c91906200288e565b6200193891906200250c565b905080955050505050505b949350505050565b60008060008373ffffffffffffffffffffffffffffffffffffffff1663feaf968c6040518163ffffffff1660e01b815260040160a060405180830381865afa1580156200199c573d6000803e3d6000fd5b505050506040513d601f19601f82011682018060405250810190620019c2919062002aed565b50505091505060008473ffffffffffffffffffffffffffffffffffffffff1663313ce5676040518163ffffffff1660e01b8152600401602060405180830381865afa15801562001a16573d6000803e3d6000fd5b505050506040513d601f19601f8201168201806040525081019062001a3c919062002ba6565b90508181935093505050915091565b604051806040016040528060008152602001606081525090565b6040518060200160405280606081525090565b612f948062002bd983390190565b6000819050919050565b62001a9b8162001a86565b82525050565b600060208201905062001ab8600083018462001a90565b92915050565b62001ac98162001a86565b82525050565b600081519050919050565b600082825260208201905092915050565b6000819050602082019050919050565b600073ffffffffffffffffffffffffffffffffffffffff82169050919050565b600062001b288262001afb565b9050919050565b62001b3a8162001b1b565b82525050565b7f4e487b7100000000000000000000000000000000000000000000000000000000600052602160045260246000fd5b6002811062001b835762001b8262001b40565b5b50565b600081905062001b968262001b6f565b919050565b600062001ba88262001b86565b9050919050565b62001bba8162001b9b565b82525050565b60408201600082015162001bd8600085018262001b2f565b50602082015162001bed602085018262001baf565b50505050565b600062001c01838362001bc0565b60408301905092915050565b6000602082019050919050565b600062001c278262001acf565b62001c33818562001ada565b935062001c408362001aeb565b8060005b8381101562001c7757815162001c5b888262001bf3565b975062001c688362001c0d565b92505060018101905062001c44565b5085935050505092915050565b600060408301600083015162001c9e600086018262001abe565b506020830151848203602086015262001cb8828262001c1a565b9150508091505092915050565b6000602082019050818103600083015262001ce1818462001c84565b905092915050565b6000604051905090565b600080fd5b600080fd5b600080fd5b600080fd5b600080fd5b60008083601f84011262001d255762001d2462001cfd565b5b8235905067ffffffffffffffff81111562001d455762001d4462001d02565b5b60208301915083600182028301111562001d645762001d6362001d07565b5b9250929050565b6000806020838503121562001d855762001d8462001cf3565b5b600083013567ffffffffffffffff81111562001da65762001da562001cf8565b5b62001db48582860162001d0c565b92509250509250929050565b62001dcb8162001a86565b811462001dd757600080fd5b50565b60008135905062001deb8162001dc0565b92915050565b6003811062001dff57600080fd5b50565b60008135905062001e138162001df1565b92915050565b6002811062001e2757600080fd5b50565b60008135905062001e3b8162001e19565b92915050565b60008115159050919050565b62001e588162001e41565b811462001e6457600080fd5b50565b60008135905062001e788162001e4d565b92915050565b6000806000806080858703121562001e9b5762001e9a62001cf3565b5b600062001eab8782880162001dda565b945050602062001ebe8782880162001e02565b935050604062001ed18782880162001e2a565b925050606062001ee48782880162001e67565b91505092959194509250565b600080fd5b6000601f19601f8301169050919050565b7f4e487b7100000000000000000000000000000000000000000000000000000000600052604160045260246000fd5b62001f408262001ef5565b810181811067ffffffffffffffff8211171562001f625762001f6162001f06565b5b80604052505050565b600062001f7762001ce9565b905062001f85828262001f35565b919050565b600067ffffffffffffffff82111562001fa85762001fa762001f06565b5b62001fb38262001ef5565b9050602081019050919050565b82818337600083830152505050565b600062001fe662001fe08462001f8a565b62001f6b565b90508281526020810184848401111562002005576200200462001ef0565b5b6200201284828562001fc0565b509392505050565b600082601f83011262002032576200203162001cfd565b5b81356200204484826020860162001fcf565b91505092915050565b60006020828403121562002066576200206562001cf3565b5b600082013567ffffffffffffffff81111562002087576200208662001cf8565b5b62002095848285016200201a565b91505092915050565b620020a98162001e41565b82525050565b600081519050919050565b600082825260208201905092915050565b60005b83811015620020eb578082015181840152602081019050620020ce565b60008484015250505050565b60006200210482620020af565b620021108185620020ba565b935062002122818560208601620020cb565b6200212d8162001ef5565b840191505092915050565b60006040820190506200214f60008301856200209e565b8181036020830152620021638184620020f7565b90509392505050565b620021778162001b1b565b81146200218357600080fd5b50565b60008135905062002197816200216c565b92915050565b600080600060608486031215620021b957620021b862001cf3565b5b6000620021c98682870162001dda565b9350506020620021dc8682870162002186565b9250506040620021ef8682870162001e67565b9150509250925092565b6000806040838503121562002213576200221262001cf3565b5b6000620022238582860162001dda565b9250506020620022368582860162001e02565b9150509250929050565b600060208301600083015184820360008601526200225f828262001c1a565b9150508091505092915050565b6000602082019050818103600083015262002288818462002240565b905092915050565b60008060008060008060c08789031215620022b057620022af62001cf3565b5b6000620022c089828a0162001e2a565b9650506020620022d389828a0162001dda565b9550506040620022e689828a0162002186565b9450506060620022f989828a0162001dda565b93505060806200230c89828a0162001e02565b92505060a06200231f89828a0162001e67565b9150509295509295509295565b620023378162001b1b565b82525050565b60006020820190506200235460008301846200232c565b92915050565b7f4e487b7100000000000000000000000000000000000000000000000000000000600052601160045260246000fd5b6000620023968262001a86565b9150620023a38362001a86565b9250828201905080821115620023be57620023bd6200235a565b5b92915050565b600081905092915050565b50565b6000620023e1600083620023c4565b9150620023ee82620023cf565b600082019050919050565b60006200240682620023d2565b9150819050919050565b7f4e487b7100000000000000000000000000000000000000000000000000000000600052603260045260246000fd5b600081519050620024508162001e4d565b92915050565b6000602082840312156200246f576200246e62001cf3565b5b60006200247f848285016200243f565b91505092915050565b600081519050620024998162001dc0565b92915050565b600060208284031215620024b857620024b762001cf3565b5b6000620024c88482850162002488565b91505092915050565b600060ff82169050919050565b6000620024eb82620024d1565b915060ff82036200250157620025006200235a565b5b600182019050919050565b6000620025198262001a86565b9150620025268362001a86565b9250828202620025368162001a86565b9150828204841483151762002550576200254f6200235a565b5b5092915050565b6000620025648262001a86565b9150620025718362001a86565b92508282039050818111156200258c576200258b6200235a565b5b92915050565b6000604082019050620025a9600083018562001a90565b620025b8602083018462001a90565b9392505050565b604082016000820151620025d7600085018262001b2f565b506020820151620025ec602085018262001b2f565b50505050565b6000819050919050565b60006200261d62002617620026118462001afb565b620025f2565b62001afb565b9050919050565b60006200263182620025fc565b9050919050565b6000620026458262002624565b9050919050565b620026578162002638565b82525050565b6040820160008201516200267560008501826200264c565b5060208201516200268a60208501826200264c565b50505050565b60038110620026a457620026a362001b40565b5b50565b6000819050620026b78262002690565b919050565b6000620026c982620026a7565b9050919050565b620026db81620026bc565b82525050565b620026ec8162001e41565b82525050565b60c0820160008201516200270a600085018262001abe565b5060208201516200271f602085018262001abe565b506040820151620027346040850182620026d0565b50606082015162002749606085018262001abe565b5060808201516200275e608085018262001baf565b5060a08201516200277360a0850182620026e1565b50505050565b600061014082019050620027916000830186620025bf565b620027a060408301856200265d565b620027af6080830184620026f2565b949350505050565b620027c28162001b9b565b82525050565b6000606082019050620027df6000830186620027b7565b620027ee60208301856200232c565b620027fd60408301846200232c565b949350505050565b600381106200281357600080fd5b50565b600081519050620028278162002805565b92915050565b60006020828403121562002846576200284562001cf3565b5b6000620028568482850162002816565b91505092915050565b7f4e487b7100000000000000000000000000000000000000000000000000000000600052601260045260246000fd5b60006200289b8262001a86565b9150620028a88362001a86565b925082620028bb57620028ba6200285f565b5b828204905092915050565b60008160011c9050919050565b6000808291508390505b60018511156200292557808604811115620028fd57620028fc6200235a565b5b60018516156200290d5780820291505b80810290506200291d85620028c6565b9450620028dd565b94509492505050565b60008262002940576001905062002a13565b8162002950576000905062002a13565b81600181146200296957600281146200297457620029aa565b600191505062002a13565b60ff8411156200298957620029886200235a565b5b8360020a915084821115620029a357620029a26200235a565b5b5062002a13565b5060208310610133831016604e8410600b8410161715620029e45782820a905083811115620029de57620029dd6200235a565b5b62002a13565b620029f38484846001620028d3565b9250905081840481111562002a0d5762002a0c6200235a565b5b81810290505b9392505050565b600062002a278262001a86565b915062002a3483620024d1565b925062002a637fffffffffffffffffffffffffffffffffffffffffffffffffffffffffffffffff84846200292e565b905092915050565b600069ffffffffffffffffffff82169050919050565b62002a8c8162002a6b565b811462002a9857600080fd5b50565b60008151905062002aac8162002a81565b92915050565b6000819050919050565b62002ac78162002ab2565b811462002ad357600080fd5b50565b60008151905062002ae78162002abc565b92915050565b600080600080600060a0868803121562002b0c5762002b0b62001cf3565b5b600062002b1c8882890162002a9b565b955050602062002b2f8882890162002ad6565b945050604062002b428882890162002488565b935050606062002b558882890162002488565b925050608062002b688882890162002a9b565b9150509295509295909350565b62002b8081620024d1565b811462002b8c57600080fd5b50565b60008151905062002ba08162002b75565b92915050565b60006020828403121562002bbf5762002bbe62001cf3565b5b600062002bcf8482850162002b8f565b9150509291505056fe61018060405260405162002f9438038062002f9483398181016040528101906200002a91906200097b565b80604001516002811115620000445762000043620009d8565b5b6101008160028111156200005d576200005c620009d8565b5b815250508160000151600160006101000a81548173ffffffffffffffffffffffffffffffffffffffff021916908373ffffffffffffffffffffffffffffffffffffffff1602179055508160200151600260006101000a81548173ffffffffffffffffffffffffffffffffffffffff021916908373ffffffffffffffffffffffffffffffffffffffff16021790555060006064605f8360600151846000015162000107919062000a36565b62000113919062000a36565b6200011f919062000ab0565b905060006002811115620001385762000137620009d8565b5b610100516002811115620001515762000150620009d8565b5b146200020f5780620001bd600160009054906101000a900473ffffffffffffffffffffffffffffffffffffffff16600260009054906101000a900473ffffffffffffffffffffffffffffffffffffffff166101005134620003a360201b620011a217909392919060201c565b101562000209578082604001516040517f08b3699c0000000000000000000000000000000000000000000000000000000081526004016200020092919062000b4a565b60405180910390fd5b6200025e565b803410156200025d578082604001516040517f08b3699c0000000000000000000000000000000000000000000000000000000081526004016200025492919062000b4a565b60405180910390fd5b5b8160a0015115156101608115158152505081608001516001811115620002895762000288620009d8565b5b610140816001811115620002a257620002a1620009d8565b5b8152505081600001516080818152505081602001516101208181525050836000015173ffffffffffffffffffffffffffffffffffffffff1660c08173ffffffffffffffffffffffffffffffffffffffff1681525050836020015173ffffffffffffffffffffffffffffffffffffffff1660a08173ffffffffffffffffffffffffffffffffffffffff16815250506000600460006101000a81548160ff02191690836002811115620003585762000357620009d8565b5b021790555060006003819055503373ffffffffffffffffffffffffffffffffffffffff1660e08173ffffffffffffffffffffffffffffffffffffffff16815250505050505062000e96565b6000806002811115620003bb57620003ba620009d8565b5b826002811115620003d157620003d0620009d8565b5b03620003e057849050620004f5565b60016002811115620003f757620003f6620009d8565b5b8260028111156200040d576200040c620009d8565b5b0362000464576000806200042786620004fd60201b60201c565b91509150600081600a6200043c919062000cd8565b88846200044a919062000a36565b62000456919062000ab0565b9050809350505050620004f5565b6000806200047886620004fd60201b60201c565b9150915060006200048f86620004fd60201b60201c565b50905060008183600a620004a4919062000cd8565b85620004b1919062000a36565b620004bd919062000ab0565b905060008184600a620004d1919062000cd8565b8b620004de919062000ab0565b620004ea919062000a36565b905080955050505050505b949350505050565b60008060008373ffffffffffffffffffffffffffffffffffffffff1663feaf968c6040518163ffffffff1660e01b815260040160a060405180830381865afa1580156200054e573d6000803e3d6000fd5b505050506040513d601f19601f8201168201806040525081019062000574919062000dab565b50505091505060008473ffffffffffffffffffffffffffffffffffffffff1663313ce5676040518163ffffffff1660e01b8152600401602060405180830381865afa158015620005c8573d6000803e3d6000fd5b505050506040513d601f19601f82011682018060405250810190620005ee919062000e64565b90508181935093505050915091565b6000604051905090565b600080fd5b600080fd5b6000601f19601f8301169050919050565b7f4e487b7100000000000000000000000000000000000000000000000000000000600052604160045260246000fd5b6200065c8262000611565b810181811067ffffffffffffffff821117156200067e576200067d62000622565b5b80604052505050565b600062000693620005fd565b9050620006a1828262000651565b919050565b600073ffffffffffffffffffffffffffffffffffffffff82169050919050565b6000620006d382620006a6565b9050919050565b620006e581620006c6565b8114620006f157600080fd5b50565b6000815190506200070581620006da565b92915050565b6000604082840312156200072457620007236200060c565b5b62000730604062000687565b905060006200074284828501620006f4565b60008301525060206200075884828501620006f4565b60208301525092915050565b60006200077182620006c6565b9050919050565b620007838162000764565b81146200078f57600080fd5b50565b600081519050620007a38162000778565b92915050565b600060408284031215620007c257620007c16200060c565b5b620007ce604062000687565b90506000620007e08482850162000792565b6000830152506020620007f68482850162000792565b60208301525092915050565b6000819050919050565b620008178162000802565b81146200082357600080fd5b50565b60008151905062000837816200080c565b92915050565b600381106200084b57600080fd5b50565b6000815190506200085f816200083d565b92915050565b600281106200087357600080fd5b50565b600081519050620008878162000865565b92915050565b60008115159050919050565b620008a4816200088d565b8114620008b057600080fd5b50565b600081519050620008c48162000899565b92915050565b600060c08284031215620008e357620008e26200060c565b5b620008ef60c062000687565b90506000620009018482850162000826565b6000830152506020620009178482850162000826565b60208301525060406200092d848285016200084e565b6040830152506060620009438482850162000826565b6060830152506080620009598482850162000876565b60808301525060a06200096f84828501620008b3565b60a08301525092915050565b6000806000610140848603121562000998576200099762000607565b5b6000620009a8868287016200070b565b9350506040620009bb86828701620007a9565b9250506080620009ce86828701620008ca565b9150509250925092565b7f4e487b7100000000000000000000000000000000000000000000000000000000600052602160045260246000fd5b7f4e487b7100000000000000000000000000000000000000000000000000000000600052601160045260246000fd5b600062000a438262000802565b915062000a508362000802565b925082820262000a608162000802565b9150828204841483151762000a7a5762000a7962000a07565b5b5092915050565b7f4e487b7100000000000000000000000000000000000000000000000000000000600052601260045260246000fd5b600062000abd8262000802565b915062000aca8362000802565b92508262000add5762000adc62000a81565b5b828204905092915050565b62000af38162000802565b82525050565b6003811062000b0d5762000b0c620009d8565b5b50565b600081905062000b208262000af9565b919050565b600062000b328262000b10565b9050919050565b62000b448162000b25565b82525050565b600060408201905062000b61600083018562000ae8565b62000b70602083018462000b39565b9392505050565b60008160011c9050919050565b6000808291508390505b600185111562000bd65780860481111562000bae5762000bad62000a07565b5b600185161562000bbe5780820291505b808102905062000bce8562000b77565b945062000b8e565b94509492505050565b60008262000bf1576001905062000cc4565b8162000c01576000905062000cc4565b816001811462000c1a576002811462000c255762000c5b565b600191505062000cc4565b60ff84111562000c3a5762000c3962000a07565b5b8360020a91508482111562000c545762000c5362000a07565b5b5062000cc4565b5060208310610133831016604e8410600b841016171562000c955782820a90508381111562000c8f5762000c8e62000a07565b5b62000cc4565b62000ca4848484600162000b84565b9250905081840481111562000cbe5762000cbd62000a07565b5b81810290505b9392505050565b600060ff82169050919050565b600062000ce58262000802565b915062000cf28362000ccb565b925062000d217fffffffffffffffffffffffffffffffffffffffffffffffffffffffffffffffff848462000bdf565b905092915050565b600069ffffffffffffffffffff82169050919050565b62000d4a8162000d29565b811462000d5657600080fd5b50565b60008151905062000d6a8162000d3f565b92915050565b6000819050919050565b62000d858162000d70565b811462000d9157600080fd5b50565b60008151905062000da58162000d7a565b92915050565b600080600080600060a0868803121562000dca5762000dc962000607565b5b600062000dda8882890162000d59565b955050602062000ded8882890162000d94565b945050604062000e008882890162000826565b935050606062000e138882890162000826565b925050608062000e268882890162000d59565b9150509295509295909350565b62000e3e8162000ccb565b811462000e4a57600080fd5b50565b60008151905062000e5e8162000e33565b92915050565b60006020828403121562000e7d5762000e7c62000607565b5b600062000e8d8482850162000e4d565b91505092915050565b60805160a05160c05160e05161010051610120516101405161016051611fdb62000fb9600039600081816104ff01528181610dfa01526116520152600081816107f401528181610bf001528181610e6901528181610f9a0152818161111801526114e801526000818161052701528181610b7601528181610d270152610f2101526000818161046701528181610cfe0152818161141e015261149f015260006115f40152600081816104c00152818161054f0152818161066c015281816109b201528181610e9b0152818161101301528181611533015261171b0152600081816106ef0152818161086f0152818161095d01528181610af001528181610cd601526116310152600081816104880152818161093501526113e70152611fdb6000f3fe60806040526004361061010d5760003560e01c806349c8493c116100955780637aeb875d116100645780637aeb875d14610331578063af5372e61461035c578063c0a2d2c614610387578063d202f272146103b2578063e54554ea146103dd57610114565b806349c8493c14610285578063623774a7146102b05780636945c1fd146102db5780636e4d243a1461030657610114565b80632853e2bb116100dc5780632853e2bb146101c25780632ca15122146101ed5780633ccfd60b146102185780633e8817aa1461022f57806343d726d61461025a57610114565b8063087d01df1461011657806312c95b84146101415780631865c57d1461016c5780631e62f7b51461019757610114565b3661011457005b005b34801561012257600080fd5b5061012b61041a565b60405161013891906118ab565b60405180910390f35b34801561014d57600080fd5b506101566104bc565b6040516101639190611907565b60405180910390f35b34801561017857600080fd5b506101816104e4565b60405161018e9190611999565b60405180910390f35b3480156101a357600080fd5b506101ac6104fb565b6040516101b991906119cf565b60405180910390f35b3480156101ce57600080fd5b506101d7610523565b6040516101e491906118ab565b60405180910390f35b3480156101f957600080fd5b5061020261054b565b60405161020f9190611999565b60405180910390f35b34801561022457600080fd5b5061022d6106ed565b005b34801561023b57600080fd5b50610244610931565b60405161025191906118ab565b60405180910390f35b34801561026657600080fd5b5061026f610959565b60405161027c9190611999565b60405180910390f35b34801561029157600080fd5b5061029a610aec565b6040516102a791906118ab565b60405180910390f35b3480156102bc57600080fd5b506102c5610cd2565b6040516102d29190611907565b60405180910390f35b3480156102e757600080fd5b506102f0610cfa565b6040516102fd9190611a32565b60405180910390f35b34801561031257600080fd5b5061031b610d22565b60405161032891906118ab565b60405180910390f35b34801561033d57600080fd5b50610346610e5c565b60405161035391906118ab565b60405180910390f35b34801561036857600080fd5b50610371610e65565b60405161037e9190611a95565b60405180910390f35b34801561039357600080fd5b5061039c610e8d565b6040516103a991906118ab565b60405180910390f35b3480156103be57600080fd5b506103c7610e97565b6040516103d491906118ab565b60405180910390f35b3480156103e957600080fd5b5061040460048036038101906103ff9190611ae1565b61100f565b60405161041191906118ab565b60405180910390f35b60006104b7600160009054906101000a900473ffffffffffffffffffffffffffffffffffffffff16600260009054906101000a900473ffffffffffffffffffffffffffffffffffffffff167f00000000000000000000000000000000000000000000000000000000000000007f00000000000000000000000000000000000000000000000000000000000000006112c2909392919063ffffffff16565b905090565b60007f0000000000000000000000000000000000000000000000000000000000000000905090565b6000600460009054906101000a900460ff16905090565b60007f0000000000000000000000000000000000000000000000000000000000000000905090565b60007f0000000000000000000000000000000000000000000000000000000000000000905090565b60007f000000000000000000000000000000000000000000000000000000000000000073ffffffffffffffffffffffffffffffffffffffff163373ffffffffffffffffffffffffffffffffffffffff16146105d2576040517f1c47555d00000000000000000000000000000000000000000000000000000000815260040160405180910390fd5b600060028111156105e6576105e5611922565b5b600460009054906101000a900460ff16600281111561060857610607611922565b5b1461063f576040517f8544e1aa00000000000000000000000000000000000000000000000000000000815260040160405180910390fd5b6001600460006101000a81548160ff0219169083600281111561066557610664611922565b5b02179055507f000000000000000000000000000000000000000000000000000000000000000073ffffffffffffffffffffffffffffffffffffffff167fa8cc9409769b9614f3ae4056957bfbb32d986e4b61c886b5e29b324b5bf92d0a426040516106d091906118ab565b60405180910390a2600460009054906101000a900460ff16905090565b7f000000000000000000000000000000000000000000000000000000000000000073ffffffffffffffffffffffffffffffffffffffff163373ffffffffffffffffffffffffffffffffffffffff1614610772576040517fbcf6e4ee00000000000000000000000000000000000000000000000000000000815260040160405180910390fd5b60028081111561078557610784611922565b5b600460009054906101000a900460ff1660028111156107a7576107a6611922565b5b146107de576040517fabf944f900000000000000000000000000000000000000000000000000000000815260040160405180910390fd5b600060018111156107f2576107f1611922565b5b7f0000000000000000000000000000000000000000000000000000000000000000600181111561082557610824611922565b5b14801561083457506000805414155b1561086b576040517f4b0381b900000000000000000000000000000000000000000000000000000000815260040160405180910390fd5b60007f000000000000000000000000000000000000000000000000000000000000000073ffffffffffffffffffffffffffffffffffffffff16476040516108b190611b3f565b60006040518083038185875af1925050503d80600081146108ee576040519150601f19603f3d011682016040523d82523d6000602084013e6108f3565b606091505b505090508061092e576040517f6b49bfb500000000000000000000000000000000000000000000000000000000815260040160405180910390fd5b50565b60007f0000000000000000000000000000000000000000000000000000000000000000905090565b60007f000000000000000000000000000000000000000000000000000000000000000073ffffffffffffffffffffffffffffffffffffffff163373ffffffffffffffffffffffffffffffffffffffff161480610a0057507f000000000000000000000000000000000000000000000000000000000000000073ffffffffffffffffffffffffffffffffffffffff163373ffffffffffffffffffffffffffffffffffffffff16145b15610ab7576002600460006101000a81548160ff02191690836002811115610a2b57610a2a611922565b5b02179055503373ffffffffffffffffffffffffffffffffffffffff16600460009054906101000a900460ff166002811115610a6957610a68611922565b5b7f72143e3654e3d085594e815a2404d3900d422c843d567b6067b1709c69542e8f42604051610a9891906118ab565b60405180910390a3600460009054906101000a900460ff169050610ae9565b6040517f5175c43000000000000000000000000000000000000000000000000000000000815260040160405180910390fd5b90565b60007f000000000000000000000000000000000000000000000000000000000000000073ffffffffffffffffffffffffffffffffffffffff163373ffffffffffffffffffffffffffffffffffffffff1614610b73576040517fbcf6e4ee00000000000000000000000000000000000000000000000000000000815260040160405180910390fd5b427f0000000000000000000000000000000000000000000000000000000000000000600354610ba29190611b83565b1115610bda576040517fe5971bc200000000000000000000000000000000000000000000000000000000815260040160405180910390fd5b60006001811115610bee57610bed611922565b5b7f00000000000000000000000000000000000000000000000000000000000000006001811115610c2157610c20611922565b5b03610c58576040517f1c18d40000000000000000000000000000000000000000000000000000000000815260040160405180910390fd5b60016002811115610c6c57610c6b611922565b5b600460009054906101000a900460ff166002811115610c8e57610c8d611922565b5b14610cc5576040517f8544e1aa00000000000000000000000000000000000000000000000000000000815260040160405180910390fd5b610ccd6113e2565b905090565b60007f0000000000000000000000000000000000000000000000000000000000000000905090565b60007f0000000000000000000000000000000000000000000000000000000000000000905090565b6000427f0000000000000000000000000000000000000000000000000000000000000000600354610d539190611b83565b1115610d8b576040517fe5971bc200000000000000000000000000000000000000000000000000000000815260040160405180910390fd5b60016002811115610d9f57610d9e611922565b5b600460009054906101000a900460ff166002811115610dc157610dc0611922565b5b14610df8576040517f8544e1aa00000000000000000000000000000000000000000000000000000000815260040160405180910390fd5b7f0000000000000000000000000000000000000000000000000000000000000000610e4f576040517f3bd6f54500000000000000000000000000000000000000000000000000000000815260040160405180910390fd5b610e576113e2565b905090565b60008054905090565b60007f0000000000000000000000000000000000000000000000000000000000000000905090565b6000600354905090565b60007f000000000000000000000000000000000000000000000000000000000000000073ffffffffffffffffffffffffffffffffffffffff163373ffffffffffffffffffffffffffffffffffffffff1614610f1e576040517f1c47555d00000000000000000000000000000000000000000000000000000000815260040160405180910390fd5b427f0000000000000000000000000000000000000000000000000000000000000000600354610f4d9190611b83565b1115610f85576040517fe5971bc200000000000000000000000000000000000000000000000000000000815260040160405180910390fd5b600180811115610f9857610f97611922565b5b7f00000000000000000000000000000000000000000000000000000000000000006001811115610fcb57610fca611922565b5b03611002576040517f1c18d40000000000000000000000000000000000000000000000000000000000815260040160405180910390fd5b61100a6113e2565b905090565b60007f000000000000000000000000000000000000000000000000000000000000000073ffffffffffffffffffffffffffffffffffffffff163373ffffffffffffffffffffffffffffffffffffffff1614611096576040517f1c47555d00000000000000000000000000000000000000000000000000000000815260040160405180910390fd5b600160028111156110aa576110a9611922565b5b600460009054906101000a900460ff1660028111156110cc576110cb611922565b5b14611103576040517f8544e1aa00000000000000000000000000000000000000000000000000000000815260040160405180910390fd5b60018081111561111657611115611922565b5b7f0000000000000000000000000000000000000000000000000000000000000000600181111561114957611148611922565b5b03611180576040517f1c18d40000000000000000000000000000000000000000000000000000000000815260040160405180910390fd5b816000808282546111919190611b83565b925050819055506000549050919050565b60008060028111156111b7576111b6611922565b5b8260028111156111ca576111c9611922565b5b036111d7578490506112ba565b600160028111156111eb576111ea611922565b5b8260028111156111fe576111fd611922565b5b036112455760008061120f86611798565b91509150600081600a6112229190611cf7565b888461122e9190611d42565b6112389190611db3565b90508093505050506112ba565b60008061125186611798565b91509150600061126086611798565b50905060008183600a6112739190611cf7565b8561127e9190611d42565b6112889190611db3565b905060008184600a61129a9190611cf7565b8b6112a59190611db3565b6112af9190611d42565b905080955050505050505b949350505050565b60008060028111156112d7576112d6611922565b5b8260028111156112ea576112e9611922565b5b036112f7578490506113da565b6001600281111561130b5761130a611922565b5b82600281111561131e5761131d611922565b5b036113655760008061132f86611798565b91509150600082886113419190611db3565b905081600a6113509190611cf7565b8161135b9190611d42565b93505050506113da565b60008061137186611798565b91509150600061138086611798565b50905060008183600a6113939190611cf7565b8561139e9190611d42565b6113a89190611db3565b90506000818a6113b89190611db3565b905083600a6113c79190611cf7565b816113d29190611d42565b955050505050505b949350505050565b6000807f000000000000000000000000000000000000000000000000000000000000000090506000600281111561141c5761141b611922565b5b7f0000000000000000000000000000000000000000000000000000000000000000600281111561144f5761144e611922565b5b146114d2576114cf600160009054906101000a900473ffffffffffffffffffffffffffffffffffffffff16600260009054906101000a900473ffffffffffffffffffffffffffffffffffffffff167f0000000000000000000000000000000000000000000000000000000000000000846112c2909392919063ffffffff16565b90505b600060018111156114e6576114e5611922565b5b7f0000000000000000000000000000000000000000000000000000000000000000600181111561151957611518611922565b5b0361152f576000548161152c9190611d42565b90505b60007f000000000000000000000000000000000000000000000000000000000000000073ffffffffffffffffffffffffffffffffffffffff168260405161157590611b3f565b60006040518083038185875af1925050503d80600081146115b2576040519150601f19603f3d011682016040523d82523d6000602084013e6115b7565b606091505b50509050806115f2576040517f6b49bfb500000000000000000000000000000000000000000000000000000000815260040160405180910390fd5b7f000000000000000000000000000000000000000000000000000000000000000073ffffffffffffffffffffffffffffffffffffffff1663728c46c1837f00000000000000000000000000000000000000000000000000000000000000007f00000000000000000000000000000000000000000000000000000000000000006040518463ffffffff1660e01b815260040161168f93929190611de4565b600060405180830381600087803b1580156116a957600080fd5b505af19250505080156116ba575060015b611711573073ffffffffffffffffffffffffffffffffffffffff167f75a8276050d3576cece86034b8f608e4a6be1a7db96d70dafd1e0a68a29c0e668360405161170491906118ab565b60405180910390a2611712565b5b426003819055507f000000000000000000000000000000000000000000000000000000000000000073ffffffffffffffffffffffffffffffffffffffff167fe6784566ea810f71a9cd63f82925ef440935e26c9e28e52a099a00ff7af3bec88342604051611781929190611e1b565b60405180910390a260008081905550819250505090565b60008060008373ffffffffffffffffffffffffffffffffffffffff1663feaf968c6040518163ffffffff1660e01b815260040160a060405180830381865afa1580156117e8573d6000803e3d6000fd5b505050506040513d601f19601f8201168201806040525081019061180c9190611ed1565b50505091505060008473ffffffffffffffffffffffffffffffffffffffff1663313ce5676040518163ffffffff1660e01b8152600401602060405180830381865afa15801561185f573d6000803e3d6000fd5b505050506040513d601f19601f820116820180604052508101906118839190611f78565b90508181935093505050915091565b6000819050919050565b6118a581611892565b82525050565b60006020820190506118c0600083018461189c565b92915050565b600073ffffffffffffffffffffffffffffffffffffffff82169050919050565b60006118f1826118c6565b9050919050565b611901816118e6565b82525050565b600060208201905061191c60008301846118f8565b92915050565b7f4e487b7100000000000000000000000000000000000000000000000000000000600052602160045260246000fd5b6003811061196257611961611922565b5b50565b600081905061197382611951565b919050565b600061198382611965565b9050919050565b61199381611978565b82525050565b60006020820190506119ae600083018461198a565b92915050565b60008115159050919050565b6119c9816119b4565b82525050565b60006020820190506119e460008301846119c0565b92915050565b600381106119fb576119fa611922565b5b50565b6000819050611a0c826119ea565b919050565b6000611a1c826119fe565b9050919050565b611a2c81611a11565b82525050565b6000602082019050611a476000830184611a23565b92915050565b60028110611a5e57611a5d611922565b5b50565b6000819050611a6f82611a4d565b919050565b6000611a7f82611a61565b9050919050565b611a8f81611a74565b82525050565b6000602082019050611aaa6000830184611a86565b92915050565b600080fd5b611abe81611892565b8114611ac957600080fd5b50565b600081359050611adb81611ab5565b92915050565b600060208284031215611af757611af6611ab0565b5b6000611b0584828501611acc565b91505092915050565b600081905092915050565b50565b6000611b29600083611b0e565b9150611b3482611b19565b600082019050919050565b6000611b4a82611b1c565b9150819050919050565b7f4e487b7100000000000000000000000000000000000000000000000000000000600052601160045260246000fd5b6000611b8e82611892565b9150611b9983611892565b9250828201905080821115611bb157611bb0611b54565b5b92915050565b60008160011c9050919050565b6000808291508390505b6001851115611c0e57808604811115611bea57611be9611b54565b5b6001851615611bf95780820291505b8081029050611c0785611bb7565b9450611bce565b94509492505050565b600082611c275760019050611ce3565b81611c355760009050611ce3565b8160018114611c4b5760028114611c5557611c84565b6001915050611ce3565b60ff841115611c6757611c66611b54565b5b8360020a915084821115611c7e57611c7d611b54565b5b50611ce3565b5060208310610133831016604e8410600b8410161715611cb95782820a905083811115611cb457611cb3611b54565b5b611ce3565b611cc68484846001611bc4565b92509050818404811115611cdd57611cdc611b54565b5b81810290505b9392505050565b600060ff82169050919050565b6000611d0282611892565b9150611d0d83611cea565b9250611d3a7fffffffffffffffffffffffffffffffffffffffffffffffffffffffffffffffff8484611c17565b905092915050565b6000611d4d82611892565b9150611d5883611892565b9250828202611d6681611892565b91508282048414831517611d7d57611d7c611b54565b5b5092915050565b7f4e487b7100000000000000000000000000000000000000000000000000000000600052601260045260246000fd5b6000611dbe82611892565b9150611dc983611892565b925082611dd957611dd8611d84565b5b828204905092915050565b6000606082019050611df9600083018661189c565b611e0660208301856118f8565b611e1360408301846119c0565b949350505050565b6000604082019050611e30600083018561189c565b611e3d602083018461189c565b9392505050565b600069ffffffffffffffffffff82169050919050565b611e6381611e44565b8114611e6e57600080fd5b50565b600081519050611e8081611e5a565b92915050565b6000819050919050565b611e9981611e86565b8114611ea457600080fd5b50565b600081519050611eb681611e90565b92915050565b600081519050611ecb81611ab5565b92915050565b600080600080600060a08688031215611eed57611eec611ab0565b5b6000611efb88828901611e71565b9550506020611f0c88828901611ea7565b9450506040611f1d88828901611ebc565b9350506060611f2e88828901611ebc565b9250506080611f3f88828901611e71565b9150509295509295909350565b611f5581611cea565b8114611f6057600080fd5b50565b600081519050611f7281611f4c565b92915050565b600060208284031215611f8e57611f8d611ab0565b5b6000611f9c84828501611f63565b9150509291505056fea2646970667358221220f3a41ce9aedad5e60392f105dd9a56f6e48825cfa9cae6bdf2df713fb50d2e8364736f6c63430008110033a2646970667358221220cde11db35136a7be2881b4283908360d681e3d6819824faf49ccd7411352e36864736f6c63430008110033",
  "devdoc": {
    "kind": "dev",
    "methods": {},
    "version": 1
  },
  "userdoc": {
    "kind": "user",
    "methods": {},
    "version": 1
  },
  "storageLayout": {
    "storage": [
      {
        "astId": 898,
        "contract": "contracts/JobOfferFactory.sol:JobOfferFactory",
        "label": "priceFeedUSDtoETH",
        "offset": 0,
        "slot": "0",
        "type": "t_contract(AggregatorV3Interface)45"
      },
      {
        "astId": 901,
        "contract": "contracts/JobOfferFactory.sol:JobOfferFactory",
        "label": "priceFeedUSDtoEUR",
        "offset": 0,
        "slot": "1",
        "type": "t_contract(AggregatorV3Interface)45"
      },
      {
        "astId": 908,
        "contract": "contracts/JobOfferFactory.sol:JobOfferFactory",
        "label": "employerData",
        "offset": 0,
        "slot": "2",
        "type": "t_mapping(t_address,t_struct(Employer)862_storage)"
      },
      {
        "astId": 913,
        "contract": "contracts/JobOfferFactory.sol:JobOfferFactory",
        "label": "employeeData",
        "offset": 0,
        "slot": "3",
        "type": "t_mapping(t_address,t_struct(Employee)867_storage)"
      },
      {
        "astId": 916,
        "contract": "contracts/JobOfferFactory.sol:JobOfferFactory",
        "label": "validOffers",
        "offset": 0,
        "slot": "4",
        "type": "t_array(t_address)dyn_storage"
      }
    ],
    "types": {
      "t_address": {
        "encoding": "inplace",
        "label": "address",
        "numberOfBytes": "20"
      },
      "t_array(t_address)dyn_storage": {
        "base": "t_address",
        "encoding": "dynamic_array",
        "label": "address[]",
        "numberOfBytes": "32"
      },
      "t_array(t_struct(Offer)873_storage)dyn_storage": {
        "base": "t_struct(Offer)873_storage",
        "encoding": "dynamic_array",
        "label": "struct JobOfferFactory.Offer[]",
        "numberOfBytes": "32"
      },
      "t_contract(AggregatorV3Interface)45": {
        "encoding": "inplace",
        "label": "contract AggregatorV3Interface",
        "numberOfBytes": "20"
      },
      "t_enum(OfferType)137": {
        "encoding": "inplace",
        "label": "enum OfferType",
        "numberOfBytes": "1"
      },
      "t_mapping(t_address,t_struct(Employee)867_storage)": {
        "encoding": "mapping",
        "key": "t_address",
        "label": "mapping(address => struct JobOfferFactory.Employee)",
        "numberOfBytes": "32",
        "value": "t_struct(Employee)867_storage"
      },
      "t_mapping(t_address,t_struct(Employer)862_storage)": {
        "encoding": "mapping",
        "key": "t_address",
        "label": "mapping(address => struct JobOfferFactory.Employer)",
        "numberOfBytes": "32",
        "value": "t_struct(Employer)862_storage"
      },
      "t_struct(Employee)867_storage": {
        "encoding": "inplace",
        "label": "struct JobOfferFactory.Employee",
        "members": [
          {
            "astId": 866,
            "contract": "contracts/JobOfferFactory.sol:JobOfferFactory",
            "label": "offers",
            "offset": 0,
            "slot": "0",
            "type": "t_array(t_struct(Offer)873_storage)dyn_storage"
          }
        ],
        "numberOfBytes": "32"
      },
      "t_struct(Employer)862_storage": {
        "encoding": "inplace",
        "label": "struct JobOfferFactory.Employer",
        "members": [
          {
            "astId": 857,
            "contract": "contracts/JobOfferFactory.sol:JobOfferFactory",
            "label": "balance",
            "offset": 0,
            "slot": "0",
            "type": "t_uint256"
          },
          {
            "astId": 861,
            "contract": "contracts/JobOfferFactory.sol:JobOfferFactory",
            "label": "offers",
            "offset": 0,
            "slot": "1",
            "type": "t_array(t_struct(Offer)873_storage)dyn_storage"
          }
        ],
        "numberOfBytes": "64"
      },
      "t_struct(Offer)873_storage": {
        "encoding": "inplace",
        "label": "struct JobOfferFactory.Offer",
        "members": [
          {
            "astId": 869,
            "contract": "contracts/JobOfferFactory.sol:JobOfferFactory",
            "label": "offerAddress",
            "offset": 0,
            "slot": "0",
            "type": "t_address"
          },
          {
            "astId": 872,
            "contract": "contracts/JobOfferFactory.sol:JobOfferFactory",
            "label": "offerType",
            "offset": 20,
            "slot": "0",
            "type": "t_enum(OfferType)137"
          }
        ],
        "numberOfBytes": "32"
      },
      "t_uint256": {
        "encoding": "inplace",
        "label": "uint256",
        "numberOfBytes": "32"
      }
    }
  }
}